:1000000029C0000042C0000040C000003EC0000007
:100010003CC000003AC0000038C0000036C00000FC
:1000200034C0000032C0000030C000002EC000000C
:100030002CC000002AC0000028C0000026C000001C
:1000400024C0000022C0000020C000001EC000002C
:100050001CC0000011241FBECFE5D8E0DEBFCDBF1D
:1000600010E0A0E6B0E0E8EAF3E002C005900D92EF
:10007000AA39B107D9F710E0AAE9B0E001C01D9292
:10008000AC39B107E1F71CD08DC1BACFB89A089549
:1000900080919A0083FD13C020E931E0C09A88EE78
:1000A00093E0F9013197F1F70197D9F7C09888EEFD
:1000B00093E0F9013197F1F70197D9F7EFCF089560
:1000C000CDB7DEB7EE97DEBFCDBFDE011696E0E618
:1000D000F0E08AE101900D928150E1F7DE01909607
:1000E000EAE7F0E08FE101900D928150E1F7FE0127
:1000F000319685E0DF011D928A95E9F789D08091DC
:100100009B00882319F0CE018096C2DF80919A006F
:10011000886080939A00CE01069628D1B7DF80E5EB
:1001200093EC20E931E0F9013197F1F70197D9F724
:10013000D0D080E593EC20E931E0F9013197F1F777
:100140000197D9F7D3D080E593EC20E931E0F901AC
:100150003197F1F70197D9F7D6D080E593EC20E9F4
:1001600031E0F9013197F1F70197D9F7D9D080E55E
:1001700093EC20E931E0F9013197F1F70197D9F7D4
:100180009BD080E593EC20E931E0F9013197F1F75C
:100190000197D9F7D2D020E931E0C09A80E197E207
:1001A000F9013197F1F70197D9F7C09880E197E20B
:1001B000F9013197F1F70197D9F7EFCF40E342BB4F
:1001C000AB9A80E991E0FC013197F1F7AB98FC0123
:1001D0003197F1F7E0E2FEE43197F1F742BBAB9AD9
:1001E000FC013197F1F7AB98FC013197F1F720E270
:1001F00033E0F9013197F1F742BBAB9AFC0131973B
:10020000F1F7AB980197F1F7C9010197F1F708955C
:10021000CF93DF938FEF81BB82B312BA84B38C602C
:1002200084BB85B3837F85BB88EE93E020E931E012
:10023000C0E9D1E0F9013197F1F70197C9F7BEDFC5
:1002400088E382BBAB9ACE010197F1F7AB98CE0160
:100250000197F1F788E082BBAB9ACE010197F1F7E5
:10026000AB98CE010197F1F781E082BBAB9ACE014A
:100270000197F1F7AB98CE010197F1F780E29EE488
:10028000FC013197F1F726E022BBAB9AFE013197D2
:10029000F1F7AB98FE013197F1F72FE022BBAB9A53
:1002A000FE013197F1F7AB982197F1F70197F1F73C
:1002B000AA9ADF91CF910895AA9881E082BBAB9A68
:1002C00080E991E0FC013197F1F7AB980197F1F7E4
:1002D0000895AA9882E082BBAB9A80E991E0FC0184
:1002E0003197F1F7AB980197F1F70895AA9888E054
:1002F00082BBAB9A80E991E0FC013197F1F7AB98B2
:100300000197F1F70895AA988FE082BBAB9A80E934
:1003100091E0FC013197F1F7AB980197F1F708955F
:10032000AA988CE082BBAB9A80E991E0FC013197FE
:10033000F1F7AB980197F1F70895AA988FE082BB87
:10034000AB9A80E991E0FC013197F1F7AB98019706
:10035000F1F70895AA9A82BBAB9A80E991E0FC017B
:100360003197F1F7AB980197F1F70895EF92FF926B
:100370001F93CF93DF93E82EE7017E01F92EE7016B
:1003800010E002C0E7DF1F5F8991882329F0143154
:10039000C9F781E080939B00DF91CF911F91FF907F
:0803A000EF900895F894FFCFDF
:1003A80068656C6C6F202E2E2E2069276D20616E7B
:1003B8002061746D656761333200616E2065727209
:1003C8006F72206F636375726564202E2E2E207005
:0A03D8006C7320636865636B00001E
:00000001FF
